1                                               EXTERNAL SYMBOL DICTIONARY                                      PAGE    1
-SYMBOL   TYPE  ID   ADDR  LENGTH LDID                                                            ASM 0201 20.28 01/03/18
0          PC  0001 000000 000000
 REVERS    SD  0002 000000 000428
1         STRING REVERSING IN 360 ASM                                                                           PAGE    2
-  LOC  OBJECT CODE    ADDR1 ADDR2  STMT   SOURCE STATEMENT                                       ASM 0201 20.28 01/03/18
0
                                       3         COPY REGS
                             00000     4 R0 EQU 0                                                                00000101
                             00001     5 R1 EQU 1                                                                00000201
                             00002     6 R2 EQU 2                                                                00000301
                             00003     7 R3 EQU 3                                                                00000401
                             00004     8 R4 EQU 4                                                                00000501
                             00005     9 R5 EQU 5                                                                00000601
                             00006    10 R6 EQU 6                                                                00000701
                             00007    11 R7 EQU 7                                                                00000801
                             00008    12 R8 EQU 8                                                                00000901
                             00009    13 R9 EQU 9                                                                00001001
                             0000A    14 R10 EQU 10                                                              00001101
                             0000B    15 R11 EQU 11                                                              00001201
                             0000C    16 R12 EQU 12                                                              00001301
                             0000D    17 R13 EQU 13                                                              00001401
                             0000E    18 R14 EQU 14                                                              00001501
                             0000F    19 R15 EQU 15                                                              00001601
                             00050    20 BUFSIZ  EQU    80

 000000                               22 REVERS  CSECT
                                      23         SAVE   (14,12)             SAVE GPRS IN PARENT SAVEAREA
 000000                               24+         DS    0H                                                       01650000
 000000 90EC D00C      0000C          25+         STM   14,12,12(13)                      SAVE REGISTERS         02950000
 000004 05C0                          26         BALR   R12,0               GET BASE ADDRESS IN R12
                             00006    27         USING  *,R12
 000006 4120 C0B6      000BC          28         LA     R2,SAVEA            GET ADDRESS OF OWN SAVEAREA
 00000A 5020 D008      00008          29         ST     R2,8(,R13)          CHAIN OLD AND...
 00000E 50D0 C0BA      000C0          30         ST     R13,SAVEA+4         ... NEW SAVEAREAS
 000012 18D2                          31         LR     R13,R2              GET NEW SAVEAREA READY
                                      32 *
                                      33         OPEN   (SYSIN,(INPUT))     OPEN SYSIN
 000014                               34+         CNOP  0,4                               ALIGN LIST TO FULLWORD 01740001
 000014 4510 C016      0001C          35+         BAL   1,*+8                             LOAD REG1 W/LIST ADDR. 01780000
 000018 80                            36+         DC    AL1(128)                          OPTION BYTE            01900000
 000019 000368                        37+         DC    AL3(SYSIN)                        DCB ADDRESS            01920000
 00001C 0A13                          38+         SVC   19                                ISSUE OPEN SVC         04000000
                                      39         OPEN   (SYSOUT,(OUTPUT))   OPEN SYSOUT
 00001E 0700                          40+         CNOP  0,4                               ALIGN LIST TO FULLWORD 01740001
 000020 4510 C022      00028          41+         BAL   1,*+8                             LOAD REG1 W/LIST ADDR. 01780000
 000024 8F                            42+         DC    AL1(143)                          OPTION BYTE            01900000
 000025 0003C8                        43+         DC    AL3(SYSOUT)                       DCB ADDRESS            01920000
 000028 0A13                          44+         SVC   19                                ISSUE OPEN SVC         04000000
                                      45 *
                                      46         PUT    SYSOUT,HELLO        PRINT HEADER MESSAGE
 00002A 4110 C3C2      003C8          47+         LA    1,SYSOUT                          LOAD PARAMETER REG 1   01900002
 00002E 4100 C14E      00154          48+         LA    0,HELLO                           LOAD PARAMETER REG 0   02500002
 000032 58F0 1030      00030          49+         L     15,48(0,1)               LOAD PUT ROUTINE ADDR           00550000
 000036 05EF                          50+         BALR  14,15                    LINK TO PUT ROUTINE             00600000
                                      51 LOOP    GET    SYSIN,BUFFIN        READ INPUT LINE (80 CHARS)
 000038 4110 C362      00368          52+LOOP     LA    1,SYSIN                           LOAD PARAMETER REG 1   01900002
 00003C 4100 C1E8      001EE          53+         LA    0,BUFFIN                          LOAD PARAMETER REG 0   02500002
 000040 58F0 1030      00030          54+         L     15,48(0,1)               LOAD GET ROUTINE ADDR           00600000
 000044 05EF                          55+         BALR  14,15                    LINK TO GET ROUTINE             00625000
1         STRING REVERSING IN 360 ASM                                                                           PAGE    3
-  LOC  OBJECT CODE    ADDR1 ADDR2  STMT   SOURCE STATEMENT                                       ASM 0201 20.28 01/03/18
0                                     56         PUT    SYSOUT,INLINE       ECHO INPUT LINE
 000046 4110 C3C2      003C8          57+         LA    1,SYSOUT                          LOAD PARAMETER REG 1   01900002
 00004A 4100 C1D3      001D9          58+         LA    0,INLINE                          LOAD PARAMETER REG 0   02500002
 00004E 58F0 1030      00030          59+         L     15,48(0,1)               LOAD PUT ROUTINE ADDR           00550000
 000052 05EF                          60+         BALR  14,15                    LINK TO PUT ROUTINE             00600000
 000054 D24F C26D C0FE 00273 00104    61         MVC    BUFOUT,ALLBLNK      CLEAN OUTPUT BUFFER
 00005A 4120 004F      0004F          62         LA     R2,BUFSIZ-1         R2: CHARACTERS REMAINING - 1
 00005E 4130 0000      00000          63         LA     R3,0                R3: OFFSET INTO OUT BUFF
 000062 4140 C1E8      001EE          64         LA     R4,BUFFIN
 000066 1A42                          65         AR     R4,R2               R4: CHARACTER TO CHECK
 000068 9540 4000      00000          66 SKIPB   CLI    0(R4),X'40'         DOES R2 POINT TO A BLANK?
 00006C 4770 C070      00076          67         BNE    ILOOP               NO: START INVERTING
 000070 0640                          68         BCTR   R4,0
 000072 4620 C062      00068          69         BCT    R2,SKIPB            YES: SKIP CHARACTER

 000076 4312 C1E8      001EE          71 ILOOP   IC     R1,BUFFIN(R2)       READ CHARACTER
 00007A 4213 C26D      00273          72         STC    R1,BUFOUT(R3)       STORE CHARACTER
 00007E 4133 0001      00001          73         LA     R3,1(R3)            INCREMENT OUT POINTER
 000082 4620 C070      00076          74         BCT    R2,ILOOP            PROCESS NEXT CHARACTER
 000086 4312 C1E8      001EE          75         IC     R1,BUFFIN(R2)       COPY LAST CHARACTER
 00008A 4213 C26D      00273          76         STC    R1,BUFOUT(R3)       (AT OFFSET ZERO)
                                      77 *
                                      78         PUT    SYSOUT,OUTLINE      DISPLAY INVERTED LINE
 00008E 4110 C3C2      003C8          79+         LA    1,SYSOUT                          LOAD PARAMETER REG 1   01900002
 000092 4100 C258      0025E          80+         LA    0,OUTLINE                         LOAD PARAMETER REG 0   02500002
 000096 58F0 1030      00030          81+         L     15,48(0,1)               LOAD PUT ROUTINE ADDR           00550000
 00009A 05EF                          82+         BALR  14,15                    LINK TO PUT ROUTINE             00600000
 00009C 47F0 C032      00038          83         B      LOOP                AND GET A NEW ONE
                                      84 *
                                      85 HNDEOF  PUT    SYSOUT,BYE          DISPLAY GOODBYE MESSAGE
 0000A0 4110 C3C2      003C8          86+HNDEOF   LA    1,SYSOUT                          LOAD PARAMETER REG 1   01900002
 0000A4 4100 C2DD      002E3          87+         LA    0,BYE                             LOAD PARAMETER REG 0   02500002
 0000A8 58F0 1030      00030          88+         L     15,48(0,1)               LOAD PUT ROUTINE ADDR           00550000
 0000AC 05EF                          89+         BALR  14,15                    LINK TO PUT ROUTINE             00600000
                                      90 *
 0000AE 58D0 C0BA      000C0          91         L      R13,SAVEA+4         RECOVER CALLER'S SA PTR
 0000B2 98EC D00C      0000C          92         LM     R14,R12,12(R13)     RECOVER SAVED REGISTERS
 0000B6 41F0 0000      00000          93         LA     R15,0               CLEAR THE RETURN CODE...
 0000BA 07FE                          94         BR     R14                 ... AND RETURN!

 0000BC                               96         DS     0F
 0000BC                               97 SAVEA   DS     18F         OWN SAVE AREA
 000104 4040404040404040              98 ALLBLNK DC     CL(BUFSIZ)' '
 000154 40D9C5E5C5D9E2C9              99 HELLO   DC     CL133' REVERSING STRING PROGRAM'
 0001D9                              100 INLINE  DS     0CL133
 0001D9 40                           101 SPACE   DC     C' '
 0001DA C5D5E3C5D9C5C440             102 PROMPT  DC     CL20'ENTERED STRING:    '
 0001EE 4040404040404040             103 BUFFIN  DC     CL(BUFSIZ)' '
 00023E 4040404040404040             104         DC     CL(133-(BUFSIZ+21))' '
 00025E                              105 OUTLINE DS     0CL133
 00025E 40                           106         DC     C' '
 00025F D9C5E5C5D9E2C5C4             107 INVER   DC     CL20'REVERSED STRING:   '
 000273 4040404040404040             108 BUFOUT  DC     CL(BUFSIZ)' '
 0002C3 4040404040404040             109         DC     CL(133-(BUFSIZ+21))' '
 0002E3 40C6C9D5C9E2C8C5             110 BYE     DC     CL133' FINISHED'
1         STRING REVERSING IN 360 ASM                                                                           PAGE    4
-  LOC  OBJECT CODE    ADDR1 ADDR2  STMT   SOURCE STATEMENT                                       ASM 0201 20.28 01/03/18
0                                    111 *
                                     112 SYSIN   DCB    RECFM=F,                                                X
                                                        DSORG=PS,                                               X
                                                        LRECL=BUFSIZ,                                           X
                                                        MACRF=(GM),                                             X
                                                        EODAD=HNDEOF,                                           X
                                                        EROPT=ACC,                                              X
                                                        DDNAME=SYSIN
0
                                     114+*                       DATA CONTROL BLOCK                              22770000
                                     115+*                                                                       22860000
 000368                              116+SYSIN    DC    0F'0'                   ORIGIN ON WORD BOUNDARY          22914000

                                     118+*                       DIRECT ACCESS DEVICE INTERFACE                  27360000

 000368 0000000000000000             120+         DC    BL16'0'                  FDAD,DVTBL                      27540000
 000378 00000000                     121+         DC    A(0)                     KEYLE,DEVT,TRBAL                27720000

                                     123+*                       COMMON ACCESS METHOD INTERFACE                  48690000

 00037C 00                           125+         DC    AL1(0)                  BUFNO                            49050000
 00037D 000001                       126+         DC    AL3(1)                  BUFCB                            54720000
 000380 0000                         127+         DC    AL2(0)             BUFL                                  55170000
 000382 4000                         128+         DC    BL2'0100000000000000'                                   *55800000
                                        +                                                 DSORG                  55890000
 000384 00000001                     129+         DC    A(1)                     IOBAD                           56340000

                                     131+*                       FOUNDATION EXTENSION                            56610000

 000388 00                           133+         DC    BL1'00000000'                  BFTEK,BFLN,HIARCHY        59850000
 000389 0000A0                       134+         DC    AL3(HNDEOF)             EODAD                            65970000
 00038C 80                           135+         DC    BL1'10000000'                                           *66150000
                                        +                                       RECFM                            66240000
 00038D 000000                       136+         DC    AL3(0)                  EXLST                            66330000

                                     138+*                       FOUNDATION BLOCK                                66690000

 000390 E2E8E2C9D5404040             140+         DC    CL8'SYSIN'              DDNAME                           66870000
 000398 02                           141+         DC    BL1'00000010'           OFLGS                            68220000
 000399 00                           142+         DC    BL1'00000000'                          IFLG              68310000
 00039A 5000                         143+         DC    BL2'0101000000000000'                                   *68400000
                                        +                                                                       *68490000
                                        +                                       MACR                             68580000

                                     145+*                       BSAM-BPAM-QSAM INTERFACE                        74430000

 00039C 00                           147+         DC    BL1'00000000'                                           *74610000
                                        +                                                                   RER1 74700000
 00039D 000001                       148+         DC    AL3(1)                  CHECK, GERR, PERR                74790000
 0003A0 00000001                     149+         DC    A(1)                    SYNAD                            74880000
 0003A4 0000                         150+         DC    H'0'                    CIND1, CIND2                     74970000
 0003A6 0000                         151+         DC    AL2(0)                  BLKSIZE                          75240000
 0003A8 00000000                     152+         DC    F'0'                    WCPO, WCPL, OFFSR, OFFSW         75870000
 0003AC 00000001                     153+         DC    A(1)                    IOBA                             75960000
1         STRING REVERSING IN 360 ASM                                                                           PAGE    5
-  LOC  OBJECT CODE    ADDR1 ADDR2  STMT   SOURCE STATEMENT                                       ASM 0201 20.28 01/03/18
00003B0 00                           154+         DC    AL1(0)                  NCP                              76050000
 0003B1 000001                       155+         DC    AL3(1)                  EOBR, EOBAD                      76140000

                                     157+*                            QSAM INTERFACE                             81450000

 0003B4 00000001                     159+         DC    A(1)                     RECAD                           81630000
 0003B8 0000                         160+         DC    H'0'                    QSWS                             81810000
 0003BA 0050                         161+         DC    AL2(BUFSIZ)    LRECL                                     80730000
 0003BC 80                           162+         DC    BL1'10000000'           EROPT                            82530000
 0003BD 000001                       163+         DC    AL3(1)                  CNTRL                            82620000
 0003C0 00000000                     164+         DC    F'0'                    PRECL                            82710000
 0003C4 00000001                     165+         DC    A(1)                    EOB                              82800000
                                     166 SYSOUT  DCB    RECFM=FBA,                                              X
                                                        DSORG=PS,                                               X
                                                        LRECL=133,                                              X
                                                        MACRF=(PM),                                             X
                                                        DDNAME=SYSOUT
0
                                     168+*                       DATA CONTROL BLOCK                              22770000
                                     169+*                                                                       22860000
 0003C8                              170+SYSOUT   DC    0F'0'                   ORIGIN ON WORD BOUNDARY          22914000

                                     172+*                       DIRECT ACCESS DEVICE INTERFACE                  27360000

 0003C8 0000000000000000             174+         DC    BL16'0'                  FDAD,DVTBL                      27540000
 0003D8 00000000                     175+         DC    A(0)                     KEYLE,DEVT,TRBAL                27720000

                                     177+*                       COMMON ACCESS METHOD INTERFACE                  48690000

 0003DC 00                           179+         DC    AL1(0)                  BUFNO                            49050000
 0003DD 000001                       180+         DC    AL3(1)                  BUFCB                            54720000
 0003E0 0000                         181+         DC    AL2(0)             BUFL                                  55170000
 0003E2 4000                         182+         DC    BL2'0100000000000000'                                   *55800000
                                        +                                                 DSORG                  55890000
 0003E4 00000001                     183+         DC    A(1)                     IOBAD                           56340000

                                     185+*                       FOUNDATION EXTENSION                            56610000

 0003E8 00                           187+         DC    BL1'00000000'                  BFTEK,BFLN,HIARCHY        59850000
 0003E9 000001                       188+         DC    AL3(1)                  EODAD                            65970000
 0003EC 94                           189+         DC    BL1'10010100'                                           *66150000
                                        +                                       RECFM                            66240000
 0003ED 000000                       190+         DC    AL3(0)                  EXLST                            66330000

                                     192+*                       FOUNDATION BLOCK                                66690000

 0003F0 E2E8E2D6E4E34040             194+         DC    CL8'SYSOUT'             DDNAME                           66870000
 0003F8 02                           195+         DC    BL1'00000010'           OFLGS                            68220000
 0003F9 00                           196+         DC    BL1'00000000'                          IFLG              68310000
 0003FA 0050                         197+         DC    BL2'0000000001010000'                                   *68400000
                                        +                                                                       *68490000
                                        +                                       MACR                             68580000

                                     199+*                       BSAM-BPAM-QSAM INTERFACE                        74430000
1         STRING REVERSING IN 360 ASM                                                                           PAGE    6
-  LOC  OBJECT CODE    ADDR1 ADDR2  STMT   SOURCE STATEMENT                                       ASM 0201 20.28 01/03/18
00003FC 00                           201+         DC    BL1'00000000'                                           *74610000
                                        +                                                                   RER1 74700000
 0003FD 000001                       202+         DC    AL3(1)                  CHECK, GERR, PERR                74790000
 000400 00000001                     203+         DC    A(1)                    SYNAD                            74880000
 000404 0000                         204+         DC    H'0'                    CIND1, CIND2                     74970000
 000406 0000                         205+         DC    AL2(0)                  BLKSIZE                          75240000
 000408 00000000                     206+         DC    F'0'                    WCPO, WCPL, OFFSR, OFFSW         75870000
 00040C 00000001                     207+         DC    A(1)                    IOBA                             75960000
 000410 00                           208+         DC    AL1(0)                  NCP                              76050000
 000411 000001                       209+         DC    AL3(1)                  EOBR, EOBAD                      76140000

                                     211+*                            QSAM INTERFACE                             81450000

 000414 00000001                     213+         DC    A(1)                     RECAD                           81630000
 000418 0000                         214+         DC    H'0'                    QSWS                             81810000
 00041A 0085                         215+         DC    AL2(133)       LRECL                                     80730000
 00041C 00                           216+         DC    BL1'00000000'           EROPT                            82530000
 00041D 000001                       217+         DC    AL3(1)                  CNTRL                            82620000
 000420 00000000                     218+         DC    F'0'                    PRECL                            82710000
 000424 00000001                     219+         DC    A(1)                    EOB                              82800000
 000428                              220         LTORG
                                     221         END
1                                                  RELOCATION DICTIONARY                                        PAGE    7
-POS.ID   REL.ID   FLAGS   ADDRESS                                                                ASM 0201 20.28 01/03/18
0 0002     0002      08     000019
  0002     0002      08     000025
  0002     0002      08     000389

1                                                  CROSS-REFERENCE                                              PAGE    8
-SYMBOL    LEN   VALUE   DEFN    REFERENCES                                                       ASM 0201 20.28 01/03/18
0ALLBLNK  00080 00000104 00098  00061
 BUFFIN   00080 000001EE 00103  00053 00064 00071 00075
 BUFOUT   00080 00000273 00108  00061 00072 00076
 BUFSIZ   00001 00000050 00020  00062 00098 00103 00104 00108 00109 00161
 BYE      00133 000002E3 00110  00087
 HELLO    00133 00000154 00099  00048
 HNDEOF   00004 000000A0 00086  00134
 ILOOP    00004 00000076 00071  00067 00074
 INLINE   00133 000001D9 00100  00058
 LOOP     00004 00000038 00052  00083
 OUTLINE  00133 0000025E 00105  00080
 R1       00001 00000001 00005  00071 00072 00075 00076
 R12      00001 0000000C 00016  00026 00027 00092
 R13      00001 0000000D 00017  00029 00030 00031 00091 00092
 R14      00001 0000000E 00018  00092 00094
 R15      00001 0000000F 00019  00093
 R2       00001 00000002 00006  00028 00029 00031 00062 00065 00069 00071 00074 00075
 R3       00001 00000003 00007  00063 00072 00073 00073 00076
 R4       00001 00000004 00008  00064 00065 00066 00068
 SAVEA    00004 000000BC 00097  00028 00030 00091
 SKIPB    00004 00000068 00066  00069
 SYSIN    00004 00000368 00116  00037 00052
 SYSOUT   00004 000003C8 00170  00043 00047 00057 00079 00086
1                                                  ASSEMBLER DIAGNOSTICS AND STATISTICS                         PAGE    9
-                                                                                                 ASM 0201 20.28 01/03/18
0NO STATEMENTS FLAGGED IN THIS ASSEMBLY
 HIGHEST SEVERITY WAS    0
 OPTIONS FOR THIS ASSEMBLY
   ALIGN, ALOGIC, BUFSIZE(STD), DECK, ESD, FLAG(0), LINECOUNT(55), LIST, NOMCALL, YFLAG, WORKSIZE(2097152)
   NOMLOGIC, NONUMBER, OBJECT, NORENT, RLD, NOSTMT, NOLIBMAC, NOTERMINAL, NOTEST, XREF(SHORT)
   SYSPARM()
 WORK FILE BUFFER SIZE/NUMBER =32758/ 1
 TOTAL RECORDS READ FROM SYSTEM INPUT         77
 TOTAL RECORDS READ FROM SYSTEM LIBRARY     3131
 TOTAL RECORDS PUNCHED                        22
 TOTAL RECORDS PRINTED                       297
